{
  "_format": "hh-sol-artifact-1",
  "contractName": "ContentContract",
  "sourceName": "contracts/ContentContract.sol",
  "abi": [
    {
      "anonymous": false,
      "inputs": [
        {
          "indexed": true,
          "internalType": "uint256",
          "name": "id",
          "type": "uint256"
        },
        {
          "indexed": false,
          "internalType": "string",
          "name": "title",
          "type": "string"
        },
        {
          "indexed": false,
          "internalType": "address",
          "name": "creator",
          "type": "address"
        }
      ],
      "name": "ContentCreated",
      "type": "event"
    },
    {
      "anonymous": false,
      "inputs": [
        {
          "indexed": true,
          "internalType": "uint256",
          "name": "id",
          "type": "uint256"
        },
        {
          "indexed": false,
          "internalType": "string",
          "name": "title",
          "type": "string"
        },
        {
          "indexed": false,
          "internalType": "address",
          "name": "buyer",
          "type": "address"
        }
      ],
      "name": "ContentPurchased",
      "type": "event"
    },
    {
      "inputs": [
        {
          "internalType": "uint256",
          "name": "",
          "type": "uint256"
        },
        {
          "internalType": "address",
          "name": "",
          "type": "address"
        }
      ],
      "name": "allowedLicensees",
      "outputs": [
        {
          "internalType": "bool",
          "name": "",
          "type": "bool"
        }
      ],
      "stateMutability": "view",
      "type": "function"
    },
    {
      "inputs": [],
      "name": "contentCount",
      "outputs": [
        {
          "internalType": "uint256",
          "name": "",
          "type": "uint256"
        }
      ],
      "stateMutability": "view",
      "type": "function"
    },
    {
      "inputs": [
        {
          "internalType": "uint256",
          "name": "",
          "type": "uint256"
        },
        {
          "internalType": "address",
          "name": "",
          "type": "address"
        }
      ],
      "name": "contentPurchases",
      "outputs": [
        {
          "internalType": "bool",
          "name": "",
          "type": "bool"
        }
      ],
      "stateMutability": "view",
      "type": "function"
    },
    {
      "inputs": [
        {
          "internalType": "uint256",
          "name": "",
          "type": "uint256"
        }
      ],
      "name": "contents",
      "outputs": [
        {
          "internalType": "string",
          "name": "title",
          "type": "string"
        },
        {
          "internalType": "string",
          "name": "description",
          "type": "string"
        },
        {
          "internalType": "uint256",
          "name": "price",
          "type": "uint256"
        },
        {
          "internalType": "address payable",
          "name": "creator",
          "type": "address"
        },
        {
          "internalType": "bool",
          "name": "isPurchased",
          "type": "bool"
        },
        {
          "internalType": "bool",
          "name": "isLicensed",
          "type": "bool"
        }
      ],
      "stateMutability": "view",
      "type": "function"
    },
    {
      "inputs": [
        {
          "internalType": "string",
          "name": "_title",
          "type": "string"
        },
        {
          "internalType": "string",
          "name": "_description",
          "type": "string"
        },
        {
          "internalType": "uint256",
          "name": "_price",
          "type": "uint256"
        }
      ],
      "name": "createContent",
      "outputs": [],
      "stateMutability": "nonpayable",
      "type": "function"
    },
    {
      "inputs": [
        {
          "internalType": "uint256",
          "name": "_contentId",
          "type": "uint256"
        }
      ],
      "name": "getContent",
      "outputs": [
        {
          "internalType": "string",
          "name": "title",
          "type": "string"
        },
        {
          "internalType": "string",
          "name": "description",
          "type": "string"
        },
        {
          "internalType": "uint256",
          "name": "price",
          "type": "uint256"
        },
        {
          "internalType": "address",
          "name": "creator",
          "type": "address"
        },
        {
          "internalType": "bool",
          "name": "isLicensed",
          "type": "bool"
        }
      ],
      "stateMutability": "view",
      "type": "function"
    },
    {
      "inputs": [
        {
          "internalType": "uint256",
          "name": "_contentId",
          "type": "uint256"
        },
        {
          "internalType": "address",
          "name": "_licensee",
          "type": "address"
        }
      ],
      "name": "grantLicense",
      "outputs": [],
      "stateMutability": "nonpayable",
      "type": "function"
    },
    {
      "inputs": [
        {
          "internalType": "uint256",
          "name": "_contentId",
          "type": "uint256"
        }
      ],
      "name": "purchaseContent",
      "outputs": [],
      "stateMutability": "payable",
      "type": "function"
    },
    {
      "inputs": [
        {
          "internalType": "uint256",
          "name": "_contentId",
          "type": "uint256"
        },
        {
          "internalType": "address",
          "name": "_licensee",
          "type": "address"
        }
      ],
      "name": "revokeLicense",
      "outputs": [],
      "stateMutability": "nonpayable",
      "type": "function"
    }
  ],
  "bytecode": "0x608060405234801561001057600080fd5b50611436806100206000396000f3fe6080604052600436106100865760003560e01c80636e4d6230116100595780636e4d62301461014e578063a1672a6714610177578063ad973020146101a0578063b5ecf912146101dd578063cc4596961461021f57610086565b80630b7ad54c1461008b578063252a8caa146100cc57806328f2ac28146100f55780634923156f14610111575b600080fd5b34801561009757600080fd5b506100b260048036038101906100ad9190610cff565b61024a565b6040516100c395949392919061105f565b60405180910390f35b3480156100d857600080fd5b506100f360048036038101906100ee9190610c80565b6103d8565b005b61010f600480360381019061010a9190610cff565b61055b565b005b34801561011d57600080fd5b5061013860048036038101906101339190610d28565b610716565b6040516101459190610fa5565b60405180910390f35b34801561015a57600080fd5b5061017560048036038101906101709190610d28565b610745565b005b34801561018357600080fd5b5061019e60048036038101906101999190610d28565b610879565b005b3480156101ac57600080fd5b506101c760048036038101906101c29190610d28565b610990565b6040516101d49190610fa5565b60405180910390f35b3480156101e957600080fd5b5061020460048036038101906101ff9190610cff565b6109bf565b60405161021696959493929190610ff0565b60405180910390f35b34801561022b57600080fd5b50610234610b45565b6040516102419190611170565b60405180910390f35b606080600080600080600160008881526020019081526020016000209050806000018160010182600201548360030160009054906101000a900473ffffffffffffffffffffffffffffffffffffffff168460030160159054906101000a900460ff168480546102b8906112b9565b80601f01602080910402602001604051908101604052809291908181526020018280546102e4906112b9565b80156103315780601f1061030657610100808354040283529160200191610331565b820191906000526020600020905b81548152906001019060200180831161031457829003601f168201915b50505050509450838054610344906112b9565b80601f0160208091040260200160405190810160405280929190818152602001828054610370906112b9565b80156103bd5780601f10610392576101008083540402835291602001916103bd565b820191906000526020600020905b8154815290600101906020018083116103a057829003601f168201915b50505050509350955095509550955095505091939590929450565b6040518060c001604052808481526020018381526020018281526020013373ffffffffffffffffffffffffffffffffffffffff1681526020016000151581526020016000151581525060016000805481526020019081526020016000206000820151816000019080519060200190610451929190610b4b565b50602082015181600101908051906020019061046e929190610b4b565b506040820151816002015560608201518160030160006101000a81548173ffffffffffffffffffffffffffffffffffffffff021916908373ffffffffffffffffffffffffffffffffffffffff16021790555060808201518160030160146101000a81548160ff02191690831515021790555060a08201518160030160156101000a81548160ff0219169083151502179055509050506000547ff686a6f0dd8def610c6020d9760e131ba44330c6c569d996a395f120aa96ca768433604051610537929190610fc0565b60405180910390a2600080815480929190610551906112eb565b9190505550505050565b600054811061059f576040517f08c379a000000000000000000000000000000000000000000000000000000000815260040161059690611110565b60405180910390fd5b60006001600083815260200190815260200160002090508060030160149054906101000a900460ff1615610608576040517f08c379a00000000000000000000000000000000000000000000000000000000081526004016105ff90611130565b60405180910390fd5b806002015434101561064f576040517f08c379a0000000000000000000000000000000000000000000000000000000008152600401610646906110f0565b60405180910390fd5b60018160030160146101000a81548160ff02191690831515021790555060016002600084815260200190815260200160002060003373ffffffffffffffffffffffffffffffffffffffff1673ffffffffffffffffffffffffffffffffffffffff16815260200190815260200160002060006101000a81548160ff021916908315150217905550817f341aa34acb9f0d651f018024f59cbc9c43b969d58da0027115c56c29e93846ac826000013360405161070a9291906110c0565b60405180910390a25050565b60036020528160005260406000206020528060005260406000206000915091509054906101000a900460ff1681565b60006001600084815260200190815260200160002090503373ffffffffffffffffffffffffffffffffffffffff168160030160009054906101000a900473ffffffffffffffffffffffffffffffffffffffff1673ffffffffffffffffffffffffffffffffffffffff16146107ee576040517f08c379a00000000000000000000000000000000000000000000000000000000081526004016107e590611150565b60405180910390fd5b60016003600085815260200190815260200160002060008473ffffffffffffffffffffffffffffffffffffffff1673ffffffffffffffffffffffffffffffffffffffff16815260200190815260200160002060006101000a81548160ff02191690831515021790555060018160030160156101000a81548160ff021916908315150217905550505050565b60006001600084815260200190815260200160002090503373ffffffffffffffffffffffffffffffffffffffff168160030160009054906101000a900473ffffffffffffffffffffffffffffffffffffffff1673ffffffffffffffffffffffffffffffffffffffff1614610922576040517f08c379a000000000000000000000000000000000000000000000000000000000815260040161091990611150565b60405180910390fd5b60006003600085815260200190815260200160002060008473ffffffffffffffffffffffffffffffffffffffff1673ffffffffffffffffffffffffffffffffffffffff16815260200190815260200160002060006101000a81548160ff021916908315150217905550505050565b60026020528160005260406000206020528060005260406000206000915091509054906101000a900460ff1681565b60016020528060005260406000206000915090508060000180546109e2906112b9565b80601f0160208091040260200160405190810160405280929190818152602001828054610a0e906112b9565b8015610a5b5780601f10610a3057610100808354040283529160200191610a5b565b820191906000526020600020905b815481529060010190602001808311610a3e57829003601f168201915b505050505090806001018054610a70906112b9565b80601f0160208091040260200160405190810160405280929190818152602001828054610a9c906112b9565b8015610ae95780601f10610abe57610100808354040283529160200191610ae9565b820191906000526020600020905b815481529060010190602001808311610acc57829003601f168201915b5050505050908060020154908060030160009054906101000a900473ffffffffffffffffffffffffffffffffffffffff16908060030160149054906101000a900460ff16908060030160159054906101000a900460ff16905086565b60005481565b828054610b57906112b9565b90600052602060002090601f016020900481019282610b795760008555610bc0565b82601f10610b9257805160ff1916838001178555610bc0565b82800160010185558215610bc0579182015b82811115610bbf578251825591602001919060010190610ba4565b5b509050610bcd9190610bd1565b5090565b5b80821115610bea576000816000905550600101610bd2565b5090565b6000610c01610bfc846111bc565b61118b565b905082815260208101848484011115610c1957600080fd5b610c24848285611277565b509392505050565b600081359050610c3b816113d2565b92915050565b600082601f830112610c5257600080fd5b8135610c62848260208601610bee565b91505092915050565b600081359050610c7a816113e9565b92915050565b600080600060608486031215610c9557600080fd5b600084013567ffffffffffffffff811115610caf57600080fd5b610cbb86828701610c41565b935050602084013567ffffffffffffffff811115610cd857600080fd5b610ce486828701610c41565b9250506040610cf586828701610c6b565b9150509250925092565b600060208284031215610d1157600080fd5b6000610d1f84828501610c6b565b91505092915050565b60008060408385031215610d3b57600080fd5b6000610d4985828601610c6b565b9250506020610d5a85828601610c2c565b9150509250929050565b610d6d8161122f565b82525050565b610d7c8161121d565b82525050565b610d8b81611241565b82525050565b6000610d9c82611201565b610da6818561120c565b9350610db6818560208601611286565b610dbf816113c1565b840191505092915050565b60008154610dd7816112b9565b610de1818661120c565b94506001821660008114610dfc5760018114610e0e57610e41565b60ff1983168652602086019350610e41565b610e17856111ec565b60005b83811015610e3957815481890152600182019150602081019050610e1a565b808801955050505b50505092915050565b6000610e5760128361120c565b91507f496e73756666696369656e742066756e647300000000000000000000000000006000830152602082019050919050565b6000610e9760128361120c565b91507f496e76616c696420636f6e74656e7420494400000000000000000000000000006000830152602082019050919050565b6000610ed760228361120c565b91507f436f6e74656e742068617320616c7265616479206265656e207075726368617360008301527f65640000000000000000000000000000000000000000000000000000000000006020830152604082019050919050565b6000610f3d60278361120c565b91507f596f7520617265206e6f74207468652063726561746f72206f6620746869732060008301527f636f6e74656e74000000000000000000000000000000000000000000000000006020830152604082019050919050565b610f9f8161126d565b82525050565b6000602082019050610fba6000830184610d82565b92915050565b60006040820190508181036000830152610fda8185610d91565b9050610fe96020830184610d73565b9392505050565b600060c082019050818103600083015261100a8189610d91565b9050818103602083015261101e8188610d91565b905061102d6040830187610f96565b61103a6060830186610d64565b6110476080830185610d82565b61105460a0830184610d82565b979650505050505050565b600060a08201905081810360008301526110798188610d91565b9050818103602083015261108d8187610d91565b905061109c6040830186610f96565b6110a96060830185610d73565b6110b66080830184610d82565b9695505050505050565b600060408201905081810360008301526110da8185610dca565b90506110e96020830184610d73565b9392505050565b6000602082019050818103600083015261110981610e4a565b9050919050565b6000602082019050818103600083015261112981610e8a565b9050919050565b6000602082019050818103600083015261114981610eca565b9050919050565b6000602082019050818103600083015261116981610f30565b9050919050565b60006020820190506111856000830184610f96565b92915050565b6000604051905081810181811067ffffffffffffffff821117156111b2576111b1611392565b5b8060405250919050565b600067ffffffffffffffff8211156111d7576111d6611392565b5b601f19601f8301169050602081019050919050565b60008190508160005260206000209050919050565b600081519050919050565b600082825260208201905092915050565b60006112288261124d565b9050919050565b600061123a8261124d565b9050919050565b60008115159050919050565b600073ffffffffffffffffffffffffffffffffffffffff82169050919050565b6000819050919050565b82818337600083830152505050565b60005b838110156112a4578082015181840152602081019050611289565b838111156112b3576000848401525b50505050565b600060028204905060018216806112d157607f821691505b602082108114156112e5576112e4611363565b5b50919050565b60006112f68261126d565b91507fffffffffffffffffffffffffffffffffffffffffffffffffffffffffffffffff82141561132957611328611334565b5b600182019050919050565b7f4e487b7100000000000000000000000000000000000000000000000000000000600052601160045260246000fd5b7f4e487b7100000000000000000000000000000000000000000000000000000000600052602260045260246000fd5b7f4e487b7100000000000000000000000000000000000000000000000000000000600052604160045260246000fd5b6000601f19601f8301169050919050565b6113db8161121d565b81146113e657600080fd5b50565b6113f28161126d565b81146113fd57600080fd5b5056fea2646970667358221220b0055d810a1110237d8fd096b91adf2b08a2af6b5a2d911ca8e760a562d7c6b164736f6c63430008000033",
  "linkReferences": {},
  "deployedLinkReferences": {}
}